{
  "contractName": "First",
  "abi": [
    {
      "constant": true,
      "inputs": [],
      "name": "age1",
      "outputs": [
        {
          "internalType": "int256",
          "name": "",
          "type": "int256"
        }
      ],
      "payable": false,
      "stateMutability": "view",
      "type": "function"
    },
    {
      "constant": true,
      "inputs": [],
      "name": "age3",
      "outputs": [
        {
          "internalType": "int256",
          "name": "",
          "type": "int256"
        }
      ],
      "payable": false,
      "stateMutability": "view",
      "type": "function"
    },
    {
      "constant": true,
      "inputs": [],
      "name": "getAge",
      "outputs": [
        {
          "internalType": "int256",
          "name": "",
          "type": "int256"
        }
      ],
      "payable": false,
      "stateMutability": "view",
      "type": "function"
    },
    {
      "constant": true,
      "inputs": [],
      "name": "getAge1",
      "outputs": [
        {
          "internalType": "int256",
          "name": "",
          "type": "int256"
        }
      ],
      "payable": false,
      "stateMutability": "view",
      "type": "function"
    },
    {
      "constant": true,
      "inputs": [],
      "name": "getAge2",
      "outputs": [
        {
          "internalType": "int256",
          "name": "",
          "type": "int256"
        }
      ],
      "payable": false,
      "stateMutability": "view",
      "type": "function"
    },
    {
      "constant": true,
      "inputs": [],
      "name": "getAge3",
      "outputs": [
        {
          "internalType": "int256",
          "name": "",
          "type": "int256"
        }
      ],
      "payable": false,
      "stateMutability": "view",
      "type": "function"
    }
  ],
  "bytecode": "0x608060405260286000556032600155603c60025534801561001f57600080fd5b506101818061002f6000396000f3fe608060405234801561001057600080fd5b50600436106100625760003560e01c8063265247b2146100675780632bc2f58d1461008557806334a43300146100a35780637d73dd34146100c1578063967e6e65146100df578063f6e8fd5f146100fd575b600080fd5b61006f61011b565b6040518082815260200191505060405180910390f35b61008d610124565b6040518082815260200191505060405180910390f35b6100ab61012a565b6040518082815260200191505060405180910390f35b6100c9610134565b6040518082815260200191505060405180910390f35b6100e761013e565b6040518082815260200191505060405180910390f35b610105610147565b6040518082815260200191505060405180910390f35b60006046905090565b60015481565b6000600254905090565b6000600154905090565b60008054905090565b60468156fea265627a7a723158204f57f42ec0904e21c08863a87c5f51d798390eb6330d03ff734c055528a4e8eb64736f6c63430005100032",
  "source": "pragma solidity ^0.5.0;\r\n\r\ncontract First {\r\n    int internal age = 40;\r\n    int public age1 = 50;\r\n    int private age2 = 60;\r\n    int public constant age3 = 70;\r\n\r\n    function getAge() public view returns (int) {\r\n        return age;   \r\n    }\r\n    function getAge1() public view returns (int) {\r\n        return age1;\r\n    }\r\n    function getAge2() public view returns (int) {\r\n        return age2;\r\n    }\r\n    function getAge3() public view returns (int) {\r\n        return age3;\r\n    }\r\n}",
  "sourcePath": "D:/Programming/PIAIC ETH/Ethereum Development/pbc-ethereum-solidity/contracts/First.sol",
  "compiler": {
    "name": "solc",
    "version": "0.5.16+commit.9c3226ce.Emscripten.clang"
  },
  "schemaVersion": "3.2.3",
  "updatedAt": "2020-08-17T10:58:50.444Z",
  "devdoc": {
    "methods": {}
  },
  "userdoc": {
    "methods": {}
  }
}